{
  "contractName": "Micronews",
  "abi": [
    {
      "constant": true,
      "inputs": [
        {
          "name": "",
          "type": "uint256"
        }
      ],
      "name": "posts",
      "outputs": [
        {
          "name": "id",
          "type": "uint256"
        },
        {
          "name": "channelId",
          "type": "uint256"
        },
        {
          "name": "feePeriodId",
          "type": "uint256"
        },
        {
          "name": "timestamp",
          "type": "uint256"
        },
        {
          "name": "upvotes",
          "type": "uint256"
        },
        {
          "name": "downvotes",
          "type": "uint256"
        },
        {
          "name": "content",
          "type": "string"
        },
        {
          "name": "creator",
          "type": "address"
        }
      ],
      "payable": false,
      "stateMutability": "view",
      "type": "function"
    },
    {
      "constant": true,
      "inputs": [],
      "name": "TIME_BETWEEN_POSTS",
      "outputs": [
        {
          "name": "",
          "type": "uint256"
        }
      ],
      "payable": false,
      "stateMutability": "view",
      "type": "function"
    },
    {
      "constant": true,
      "inputs": [],
      "name": "postId",
      "outputs": [
        {
          "name": "",
          "type": "uint256"
        }
      ],
      "payable": false,
      "stateMutability": "view",
      "type": "function"
    },
    {
      "constant": false,
      "inputs": [],
      "name": "renounceOwnership",
      "outputs": [],
      "payable": false,
      "stateMutability": "nonpayable",
      "type": "function"
    },
    {
      "constant": true,
      "inputs": [],
      "name": "owner",
      "outputs": [
        {
          "name": "",
          "type": "address"
        }
      ],
      "payable": false,
      "stateMutability": "view",
      "type": "function"
    },
    {
      "constant": true,
      "inputs": [],
      "name": "isOwner",
      "outputs": [
        {
          "name": "",
          "type": "bool"
        }
      ],
      "payable": false,
      "stateMutability": "view",
      "type": "function"
    },
    {
      "constant": true,
      "inputs": [],
      "name": "channelId",
      "outputs": [
        {
          "name": "",
          "type": "uint256"
        }
      ],
      "payable": false,
      "stateMutability": "view",
      "type": "function"
    },
    {
      "constant": true,
      "inputs": [],
      "name": "RESERVE_RATIO",
      "outputs": [
        {
          "name": "",
          "type": "uint256"
        }
      ],
      "payable": false,
      "stateMutability": "view",
      "type": "function"
    },
    {
      "constant": true,
      "inputs": [],
      "name": "creatorId",
      "outputs": [
        {
          "name": "",
          "type": "uint256"
        }
      ],
      "payable": false,
      "stateMutability": "view",
      "type": "function"
    },
    {
      "constant": false,
      "inputs": [
        {
          "name": "newOwner",
          "type": "address"
        }
      ],
      "name": "transferOwnership",
      "outputs": [],
      "payable": false,
      "stateMutability": "nonpayable",
      "type": "function"
    },
    {
      "inputs": [],
      "payable": false,
      "stateMutability": "nonpayable",
      "type": "constructor"
    },
    {
      "anonymous": false,
      "inputs": [
        {
          "indexed": true,
          "name": "creator",
          "type": "address"
        },
        {
          "indexed": true,
          "name": "channelId",
          "type": "uint256"
        },
        {
          "indexed": false,
          "name": "content",
          "type": "string"
        }
      ],
      "name": "PostCreated",
      "type": "event"
    },
    {
      "anonymous": false,
      "inputs": [
        {
          "indexed": true,
          "name": "previousOwner",
          "type": "address"
        },
        {
          "indexed": true,
          "name": "newOwner",
          "type": "address"
        }
      ],
      "name": "OwnershipTransferred",
      "type": "event"
    },
    {
      "constant": false,
      "inputs": [
        {
          "name": "_channelId",
          "type": "uint256"
        }
      ],
      "name": "mintEquity",
      "outputs": [],
      "payable": true,
      "stateMutability": "payable",
      "type": "function"
    },
    {
      "constant": false,
      "inputs": [
        {
          "name": "_channelId",
          "type": "uint256"
        },
        {
          "name": "_burnAmount",
          "type": "uint256"
        }
      ],
      "name": "burnEquity",
      "outputs": [],
      "payable": false,
      "stateMutability": "nonpayable",
      "type": "function"
    },
    {
      "constant": false,
      "inputs": [
        {
          "name": "_channelId",
          "type": "uint256"
        }
      ],
      "name": "subscribeToChannel",
      "outputs": [],
      "payable": true,
      "stateMutability": "payable",
      "type": "function"
    },
    {
      "constant": false,
      "inputs": [
        {
          "name": "_channelId",
          "type": "uint256"
        }
      ],
      "name": "unsubscribeToChannel",
      "outputs": [],
      "payable": false,
      "stateMutability": "nonpayable",
      "type": "function"
    },
    {
      "constant": false,
      "inputs": [
        {
          "name": "_channelId",
          "type": "uint256"
        }
      ],
      "name": "isUserSubscribedToChannel",
      "outputs": [
        {
          "name": "",
          "type": "bool"
        }
      ],
      "payable": false,
      "stateMutability": "nonpayable",
      "type": "function"
    },
    {
      "constant": false,
      "inputs": [
        {
          "name": "_channelName",
          "type": "bytes"
        }
      ],
      "name": "createChannel",
      "outputs": [],
      "payable": false,
      "stateMutability": "nonpayable",
      "type": "function"
    },
    {
      "constant": false,
      "inputs": [
        {
          "name": "_creatorName",
          "type": "bytes"
        }
      ],
      "name": "registerContentCreator",
      "outputs": [],
      "payable": false,
      "stateMutability": "nonpayable",
      "type": "function"
    },
    {
      "constant": false,
      "inputs": [
        {
          "name": "_content",
          "type": "string"
        },
        {
          "name": "_channelId",
          "type": "uint256"
        }
      ],
      "name": "createPost",
      "outputs": [],
      "payable": false,
      "stateMutability": "nonpayable",
      "type": "function"
    },
    {
      "constant": false,
      "inputs": [
        {
          "name": "_channelId",
          "type": "uint256"
        },
        {
          "name": "_postId",
          "type": "uint256"
        },
        {
          "name": "upvote",
          "type": "bool"
        }
      ],
      "name": "voteOnPost",
      "outputs": [],
      "payable": false,
      "stateMutability": "nonpayable",
      "type": "function"
    },
    {
      "constant": false,
      "inputs": [
        {
          "name": "_postId",
          "type": "uint256"
        },
        {
          "name": "_channelId",
          "type": "uint256"
        }
      ],
      "name": "bookmarkPost",
      "outputs": [],
      "payable": false,
      "stateMutability": "nonpayable",
      "type": "function"
    },
    {
      "constant": false,
      "inputs": [],
      "name": "closeFeePeriod",
      "outputs": [],
      "payable": false,
      "stateMutability": "nonpayable",
      "type": "function"
    },
    {
      "constant": false,
      "inputs": [
        {
          "name": "_channelId",
          "type": "uint256"
        }
      ],
      "name": "collectEquityFees",
      "outputs": [],
      "payable": false,
      "stateMutability": "nonpayable",
      "type": "function"
    },
    {
      "constant": false,
      "inputs": [
        {
          "name": "_channelId",
          "type": "uint256"
        }
      ],
      "name": "collectContentFees",
      "outputs": [],
      "payable": false,
      "stateMutability": "nonpayable",
      "type": "function"
    },
    {
      "constant": true,
      "inputs": [],
      "name": "getNumberOfChannels",
      "outputs": [
        {
          "name": "_num",
          "type": "uint256"
        }
      ],
      "payable": false,
      "stateMutability": "view",
      "type": "function"
    }
  ],
  "bytecode": "0x608060405267016345785d8a000060015560016009556207a120600a556001600b556001600e5561a8c0601255600160145534801561003d57600080fd5b50336000806101000a81548173ffffffffffffffffffffffffffffffffffffffff021916908373ffffffffffffffffffffffffffffffffffffffff1602179055506000809054906101000a900473ffffffffffffffffffffffffffffffffffffffff1673ffffffffffffffffffffffffffffffffffffffff16600073ffffffffffffffffffffffffffffffffffffffff167f8be0079c531659141344cd1fd0a4f28419497f9722a3daafe3b4186f6b6457e060405160405180910390a342601381905550617305806101106000396000f3fe60806040526004361062000157576000357c0100000000000000000000000000000000000000000000000000000000900463ffffffff1680630b1e7f83146200015c5780631252cb48146200027457806317abcf60146200034d5780631d5c4ee1146200041c57806330bb7426146200044a57806346dbd6cd14620004935780634b3f738614620004e857806360a0ecda14620005195780636ba66ab014620005475780636e7b34241462000561578063715018a6146200059257806379ab85cf14620005ac5780637a5d6e3f146200067b57806382569bfd14620006ba5780638d76c42814620006f95780638da5cb5b14620007385780638f32d59b1462000792578063b4456c1c14620007c4578063e2cee544146200081b578063e37dbfd91462000849578063e58324ea1462000877578063f2cb7cdc14620008a5578063f2fde38b14620008d3578063f61c7e361462000928575b600080fd5b3480156200016957600080fd5b5062000199600480360360208110156200018257600080fd5b810190808035906020019092919050505062000971565b60405180898152602001888152602001878152602001868152602001858152602001848152602001806020018373ffffffffffffffffffffffffffffffffffffffff1673ffffffffffffffffffffffffffffffffffffffff168152602001828103825284818151815260200191508051906020019080838360005b838110156200023157808201518184015260208101905062000214565b50505050905090810190601f1680156200025f5780820380516001836020036101000a031916815260200191505b50995050505050505050505060405180910390f35b3480156200028157600080fd5b506200034b600480360360408110156200029a57600080fd5b8101908080359060200190640100000000811115620002b857600080fd5b820183602082011115620002cb57600080fd5b80359060200191846001830284011164010000000083111715620002ee57600080fd5b91908080601f016020809104026020016040519081016040528093929190818152602001838380828437600081840152601f19601f8201169050808301925050505050505091929192908035906020019092919050505062000a75565b005b3480156200035a57600080fd5b506200041a600480360360208110156200037357600080fd5b81019080803590602001906401000000008111156200039157600080fd5b820183602082011115620003a457600080fd5b80359060200191846001830284011164010000000083111715620003c757600080fd5b91908080601f016020809104026020016040519081016040528093929190818152602001838380828437600081840152601f19601f82011690508083019250505050505050919291929050505062000f87565b005b3480156200042957600080fd5b506200043462001117565b6040518082815260200191505060405180910390f35b3480156200045757600080fd5b5062000491600480360360408110156200047057600080fd5b8101908080359060200190929190803590602001909291905050506200111d565b005b348015620004a057600080fd5b50620004e660048036036060811015620004b957600080fd5b810190808035906020019092919080359060200190929190803515159060200190929190505050620014b5565b005b62000517600480360360208110156200050057600080fd5b8101908080359060200190929190505050620015df565b005b3480156200052657600080fd5b5062000531620017b4565b6040518082815260200191505060405180910390f35b3480156200055457600080fd5b506200055f620017ba565b005b62000590600480360360208110156200057957600080fd5b8101908080359060200190929190505050620019ac565b005b3480156200059f57600080fd5b50620005aa62001aa5565b005b348015620005b957600080fd5b506200067960048036036020811015620005d257600080fd5b8101908080359060200190640100000000811115620005f057600080fd5b8201836020820111156200060357600080fd5b803590602001918460018302840111640100000000831117156200062657600080fd5b91908080601f016020809104026020016040519081016040528093929190818152602001838380828437600081840152601f19601f82011690508083019250505050505050919291929050505062001be3565b005b3480156200068857600080fd5b50620006b860048036036020811015620006a157600080fd5b810190808035906020019092919050505062001d10565b005b348015620006c757600080fd5b50620006f760048036036020811015620006e057600080fd5b810190808035906020019092919050505062001d13565b005b3480156200070657600080fd5b5062000736600480360360208110156200071f57600080fd5b810190808035906020019092919050505062001f57565b005b3480156200074557600080fd5b506200075062001fd6565b604051808273ffffffffffffffffffffffffffffffffffffffff1673ffffffffffffffffffffffffffffffffffffffff16815260200191505060405180910390f35b3480156200079f57600080fd5b50620007aa62001fff565b604051808215151515815260200191505060405180910390f35b348015620007d157600080fd5b506200080160048036036020811015620007ea57600080fd5b810190808035906020019092919050505062002056565b604051808215151515815260200191505060405180910390f35b3480156200082857600080fd5b5062000833620020d0565b6040518082815260200191505060405180910390f35b3480156200085657600080fd5b5062000861620020d6565b6040518082815260200191505060405180910390f35b3480156200088457600080fd5b506200088f620020dc565b6040518082815260200191505060405180910390f35b348015620008b257600080fd5b50620008bd620020e2565b6040518082815260200191505060405180910390f35b348015620008e057600080fd5b506200092660048036036020811015620008f957600080fd5b81019080803573ffffffffffffffffffffffffffffffffffffffff169060200190929190505050620020ef565b005b3480156200093557600080fd5b506200096f600480360360408110156200094e57600080fd5b8101908080359060200190929190803590602001909291905050506200217c565b005b600f602052806000526040600020600091509050806000015490806001015490806002015490806003015490806004015490806005015490806006018054600181600116156101000203166002900480601f01602080910402602001604051908101604052809291908181526020018280546001816001161561010002031660029004801562000a455780601f1062000a195761010080835404028352916020019162000a45565b820191906000526020600020905b81548152906001019060200180831162000a2757829003601f168201915b5050505050908060070160009054906101000a900473ffffffffffffffffffffffffffffffffffffffff16905088565b6000600c60003373ffffffffffffffffffffffffffffffffffffffff1673ffffffffffffffffffffffffffffffffffffffff1681526020019081526020016000205411151562000b2d576040517f08c379a00000000000000000000000000000000000000000000000000000000081526004018080602001828103825260168152602001807f43726561746f72206e6f7420726567697374657265640000000000000000000081525060200191505060405180910390fd5b42601254601160003373ffffffffffffffffffffffffffffffffffffffff1673ffffffffffffffffffffffffffffffffffffffff168152602001908152602001600020540110151562000c0e576040517f08c379a00000000000000000000000000000000000000000000000000000000081526004018080602001828103825260288152602001807f43726561746f72206d757374207761697420313220686f75727320626574776581526020017f656e20706f73747300000000000000000000000000000000000000000000000081525060400191505060405180910390fd5b60011515600660006014548152602001908152602001600020600083815260200190815260200160002060003373ffffffffffffffffffffffffffffffffffffffff1673ffffffffffffffffffffffffffffffffffffffff16815260200190815260200160002060009054906101000a900460ff16151514151562000d21576040517f08c379a00000000000000000000000000000000000000000000000000000000081526004018080602001828103825260218152602001807f43726561746f72206e6f74207375627363726962656420746f206368616e6e6581526020017f6c0000000000000000000000000000000000000000000000000000000000000081525060400191505060405180910390fd5b62000d2b6200273b565b61010060405190810160405280600e548152602001838152602001601454815260200142815260200160008152602001600081526020018481526020013373ffffffffffffffffffffffffffffffffffffffff168152509050813373ffffffffffffffffffffffffffffffffffffffff167f12a6d6e360de92ee96444e397580fa39ca65f27c25bd78a4bad6278011334fac856040518080602001828103825283818151815260200191508051906020019080838360005b8381101562000e0057808201518184015260208101905062000de3565b50505050905090810190601f16801562000e2e5780820380516001836020036101000a031916815260200191505b509250505060405180910390a380600f6000600e548152602001908152602001600020600082015181600001556020820151816001015560408201518160020155606082015181600301556080820151816004015560a0820151816005015560c082015181600601908051906020019062000eab92919062002797565b5060e08201518160070160006101000a81548173ffffffffffffffffffffffffffffffffffffffff021916908373ffffffffffffffffffffffffffffffffffffffff160217905550905050601060003373ffffffffffffffffffffffffffffffffffffffff1673ffffffffffffffffffffffffffffffffffffffff16815260200190815260200160002060006014548152602001908152602001600020600e6000815480929190600101919050559080600181540180825580915050906001820390600052602060002001600090919290919091505550505050565b62000f9162001fff565b151562001006576040517f08c379a00000000000000000000000000000000000000000000000000000000081526004018080602001828103825260208152602001807f4f776e61626c653a2063616c6c6572206973206e6f7420746865206f776e657281525060200191505060405180910390fd5b600a54620010136200281e565b80828152602001915050604051809103906000f0801580156200103a573d6000803e3d6000fd5b5060026000600954815260200190815260200160002060006101000a81548173ffffffffffffffffffffffffffffffffffffffff021916908373ffffffffffffffffffffffffffffffffffffffff160217905550620010986200282f565b606060405190810160405280600954815260200160008152602001838152509050806003600060096000815480929190600101919050558152602001908152602001600020600082015181600001556020820151816001015560408201518160020190805190602001906200110f92919062002851565b509050505050565b60125481565b601454600f600084815260200190815260200160002060020154141515620011d3576040517f08c379a00000000000000000000000000000000000000000000000000000000081526004018080602001828103825260388152602001807f426f6f6b6d61726b7320617265206f6e6c792076616c696420666f7220706f7381526020017f747320696e2063757272656e742066656520706572696f64000000000000000081525060400191505060405180910390fd5b600560076000601454815260200190815260200160002060003373ffffffffffffffffffffffffffffffffffffffff1673ffffffffffffffffffffffffffffffffffffffff168152602001908152602001600020541015156200129e576040517f08c379a000000000000000000000000000000000000000000000000000000000815260040180806020018281038252601f8152602001807f5573657220686173206e6f20626f6f6b6d61726b732072656d61696e696e670081525060200191505060405180910390fd5b60011515600660006014548152602001908152602001600020600083815260200190815260200160002060003373ffffffffffffffffffffffffffffffffffffffff1673ffffffffffffffffffffffffffffffffffffffff16815260200190815260200160002060009054906101000a900460ff161515141515620013b1576040517f08c379a00000000000000000000000000000000000000000000000000000000081526004018080602001828103825260288152602001807f426f6f6b6d61726b6572206d757374206265207375627363726962656420746f81526020017f206368616e6e656c00000000000000000000000000000000000000000000000081525060400191505060405180910390fd5b60076000601454815260200190815260200160002060003373ffffffffffffffffffffffffffffffffffffffff1673ffffffffffffffffffffffffffffffffffffffff168152602001908152602001600020600081548092919060010191905055506000600f600084815260200190815260200160002060070160009054906101000a900473ffffffffffffffffffffffffffffffffffffffff16905060086000601454815260200190815260200160002060008273ffffffffffffffffffffffffffffffffffffffff1673ffffffffffffffffffffffffffffffffffffffff16815260200190815260200160002060008154809291906001019190505550505050565b8260006005600083815260200190815260200160002060003373ffffffffffffffffffffffffffffffffffffffff1673ffffffffffffffffffffffffffffffffffffffff168152602001908152602001600020541115156200157f576040517f08c379a000000000000000000000000000000000000000000000000000000000815260040180806020018281038252601b8152602001807f566f7465722069736e277420616e20657175697479206f776e6572000000000081525060200191505060405180910390fd5b8115620015b257600f600084815260200190815260200160002060040160008154809291906001019190505550620015d9565b600f6000848152602001908152602001600020600501600081548092919060010191905055505b50505050565b60006002600083815260200190815260200160002060009054906101000a900473ffffffffffffffffffffffffffffffffffffffff1673ffffffffffffffffffffffffffffffffffffffff16631249c58b6040518163ffffffff167c0100000000000000000000000000000000000000000000000000000000028152600401602060405180830381600087803b1580156200167957600080fd5b505af11580156200168e573d6000803e3d6000fd5b505050506040513d6020811015620016a557600080fd5b81019080805190602001909291905050509050620016e08160046000858152602001908152602001600020546200233490919063ffffffff16565b60046000848152602001908152602001600020819055506200175c816005600085815260200190815260200160002060003373ffffffffffffffffffffffffffffffffffffffff1673ffffffffffffffffffffffffffffffffffffffff168152602001908152602001600020546200233490919063ffffffff16565b6005600084815260200190815260200160002060003373ffffffffffffffffffffffffffffffffffffffff1673ffffffffffffffffffffffffffffffffffffffff168152602001908152602001600020819055505050565b600e5481565b620017c462001fff565b151562001839576040517f08c379a00000000000000000000000000000000000000000000000000000000081526004018080602001828103825260208152602001807f4f776e61626c653a2063616c6c6572206973206e6f7420746865206f776e657281525060200191505060405180910390fd5b426200185462093a80601454620023bf90919063ffffffff16565b60135401111515620018ce576040517f08c379a000000000000000000000000000000000000000000000000000000000815260040180806020018281038252601b8152602001807f46656520706572696f64206e6f742079657420636f6d706c657465000000000081525060200191505060405180910390fd5b60008090505b620018de620020e2565b811015620019975760006200192a60026200191b6001546003600087815260200190815260200160002060010154620023bf90919063ffffffff16565b6200249090919063ffffffff16565b90508060156000601454815260200190815260200160002060008481526020019081526020016000206002018190555080601560006014548152602001908152602001600020600084815260200190815260200160002060030181905550508080600101915050620018d4565b50601460008154809291906001019190505550565b6001543414151562001a26576040517f08c379a000000000000000000000000000000000000000000000000000000000815260040180806020018281038252601f8152602001807f4d757374207061792065786163742066656520746f207375627363726962650081525060200191505060405180910390fd5b6001600660006014548152602001908152602001600020600083815260200190815260200160002060003373ffffffffffffffffffffffffffffffffffffffff1673ffffffffffffffffffffffffffffffffffffffff16815260200190815260200160002060006101000a81548160ff02191690831515021790555050565b62001aaf62001fff565b151562001b24576040517f08c379a00000000000000000000000000000000000000000000000000000000081526004018080602001828103825260208152602001807f4f776e61626c653a2063616c6c6572206973206e6f7420746865206f776e657281525060200191505060405180910390fd5b600073ffffffffffffffffffffffffffffffffffffffff166000809054906101000a900473ffffffffffffffffffffffffffffffffffffffff1673ffffffffffffffffffffffffffffffffffffffff167f8be0079c531659141344cd1fd0a4f28419497f9722a3daafe3b4186f6b6457e060405160405180910390a360008060006101000a81548173ffffffffffffffffffffffffffffffffffffffff021916908373ffffffffffffffffffffffffffffffffffffffff160217905550565b6000600c60003373ffffffffffffffffffffffffffffffffffffffff1673ffffffffffffffffffffffffffffffffffffffff1681526020019081526020016000205414151562001c9b576040517f08c379a00000000000000000000000000000000000000000000000000000000081526004018080602001828103825260168152602001807f43726561746f7220616c7265616479206578697374730000000000000000000081525060200191505060405180910390fd5b600b54600c60003373ffffffffffffffffffffffffffffffffffffffff1673ffffffffffffffffffffffffffffffffffffffff1681526020019081526020016000208190555080600d6000600b548152602001908152602001600020908051906020019062001d0c929190620028d8565b5050565b50565b8060006005600083815260200190815260200160002060003373ffffffffffffffffffffffffffffffffffffffff1673ffffffffffffffffffffffffffffffffffffffff1681526020019081526020016000205411151562001ddd576040517f08c379a000000000000000000000000000000000000000000000000000000000815260040180806020018281038252601b8152602001807f566f7465722069736e277420616e20657175697479206f776e6572000000000081525060200191505060405180910390fd5b60006005600084815260200190815260200160002060003373ffffffffffffffffffffffffffffffffffffffff1673ffffffffffffffffffffffffffffffffffffffff168152602001908152602001600020549050600060046000858152602001908152602001600020549050600081601560006001601454038152602001908152602001600020600087815260200190815260200160002060020154840281151562001e8657fe5b0490506001601660006001601454038152602001908152602001600020600087815260200190815260200160002060003373ffffffffffffffffffffffffffffffffffffffff1673ffffffffffffffffffffffffffffffffffffffff16815260200190815260200160002060006101000a81548160ff0219169083151502179055503373ffffffffffffffffffffffffffffffffffffffff166108fc829081150290604051600060405180830381858888f1935050505015801562001f4f573d6000803e3d6000fd5b505050505050565b6000600660006014548152602001908152602001600020600083815260200190815260200160002060003373ffffffffffffffffffffffffffffffffffffffff1673ffffffffffffffffffffffffffffffffffffffff16815260200190815260200160002060006101000a81548160ff02191690831515021790555050565b60008060009054906101000a900473ffffffffffffffffffffffffffffffffffffffff16905090565b60008060009054906101000a900473ffffffffffffffffffffffffffffffffffffffff1673ffffffffffffffffffffffffffffffffffffffff163373ffffffffffffffffffffffffffffffffffffffff1614905090565b6000600660006014548152602001908152602001600020600083815260200190815260200160002060003373ffffffffffffffffffffffffffffffffffffffff1673ffffffffffffffffffffffffffffffffffffffff16815260200190815260200160002060009054906101000a900460ff169050919050565b60095481565b600a5481565b600b5481565b6000600160095403905090565b620020f962001fff565b15156200216e576040517f08c379a00000000000000000000000000000000000000000000000000000000081526004018080602001828103825260208152602001807f4f776e61626c653a2063616c6c6572206973206e6f7420746865206f776e657281525060200191505060405180910390fd5b620021798162002525565b50565b6002600083815260200190815260200160002060009054906101000a900473ffffffffffffffffffffffffffffffffffffffff1673ffffffffffffffffffffffffffffffffffffffff166342966c68826040518263ffffffff167c010000000000000000000000000000000000000000000000000000000002815260040180828152602001915050600060405180830381600087803b1580156200221f57600080fd5b505af115801562002234573d6000803e3d6000fd5b5050505062002260816004600085815260200190815260200160002054620026af90919063ffffffff16565b6004600084815260200190815260200160002081905550620022dc816005600085815260200190815260200160002060003373ffffffffffffffffffffffffffffffffffffffff1673ffffffffffffffffffffffffffffffffffffffff16815260200190815260200160002054620026af90919063ffffffff16565b6005600084815260200190815260200160002060003373ffffffffffffffffffffffffffffffffffffffff1673ffffffffffffffffffffffffffffffffffffffff168152602001908152602001600020819055505050565b6000808284019050838110151515620023b5576040517f08c379a000000000000000000000000000000000000000000000000000000000815260040180806020018281038252601b8152602001807f536166654d6174683a206164646974696f6e206f766572666c6f77000000000081525060200191505060405180910390fd5b8091505092915050565b600080831415620023d457600090506200248a565b60008284029050828482811515620023e857fe5b0414151562002485576040517f08c379a00000000000000000000000000000000000000000000000000000000081526004018080602001828103825260218152602001807f536166654d6174683a206d756c7469706c69636174696f6e206f766572666c6f81526020017f770000000000000000000000000000000000000000000000000000000000000081525060400191505060405180910390fd5b809150505b92915050565b600080821115156200250a576040517f08c379a000000000000000000000000000000000000000000000000000000000815260040180806020018281038252601a8152602001807f536166654d6174683a206469766973696f6e206279207a65726f00000000000081525060200191505060405180910390fd5b600082848115156200251857fe5b0490508091505092915050565b600073ffffffffffffffffffffffffffffffffffffffff168173ffffffffffffffffffffffffffffffffffffffff1614151515620025f1576040517f08c379a00000000000000000000000000000000000000000000000000000000081526004018080602001828103825260268152602001807f4f776e61626c653a206e6577206f776e657220697320746865207a65726f206181526020017f646472657373000000000000000000000000000000000000000000000000000081525060400191505060405180910390fd5b8073ffffffffffffffffffffffffffffffffffffffff166000809054906101000a900473ffffffffffffffffffffffffffffffffffffffff1673ffffffffffffffffffffffffffffffffffffffff167f8be0079c531659141344cd1fd0a4f28419497f9722a3daafe3b4186f6b6457e060405160405180910390a3806000806101000a81548173ffffffffffffffffffffffffffffffffffffffff021916908373ffffffffffffffffffffffffffffffffffffffff16021790555050565b60008282111515156200272a576040517f08c379a000000000000000000000000000000000000000000000000000000000815260040180806020018281038252601e8152602001807f536166654d6174683a207375627472616374696f6e206f766572666c6f77000081525060200191505060405180910390fd5b600082840390508091505092915050565b6101006040519081016040528060008152602001600081526020016000815260200160008152602001600081526020016000815260200160608152602001600073ffffffffffffffffffffffffffffffffffffffff1681525090565b828054600181600116156101000203166002900490600052602060002090601f016020900481019282601f10620027da57805160ff19168380011785556200280b565b828001600101855582156200280b579182015b828111156200280a578251825591602001919060010190620027ed565b5b5090506200281a91906200295f565b5090565b604051614952806200298883390190565b6060604051908101604052806000815260200160008152602001606081525090565b828054600181600116156101000203166002900490600052602060002090601f016020900481019282601f106200289457805160ff1916838001178555620028c5565b82800160010185558215620028c5579182015b82811115620028c4578251825591602001919060010190620028a7565b5b509050620028d491906200295f565b5090565b828054600181600116156101000203166002900490600052602060002090601f016020900481019282601f106200291b57805160ff19168380011785556200294c565b828001600101855582156200294c579182015b828111156200294b5782518255916020019190600101906200292e565b5b5090506200295b91906200295f565b5090565b6200298491905b808211156200298057600081600090555060010162002966565b5090565b9056fe60806040526040805190810160405280600381526020017f302e330000000000000000000000000000000000000000000000000000000000815250600090805190602001906200005192919062001419565b50600180556020600260006101000a81548160ff021916908360ff160217905550607f600260016101000a81548160ff021916908360ff1602179055506f800000000000000000000000000000006003557002000000000000000000000000000000006004556f03f80fe03f80fe03f80fe03f80fe03f86005556f05b9de1d10bf4103d647b0955897ba8060065570015bf0a8b1457695355fb8ac404e7a79e36007557008000000000000000000000000000000006008556040805190810160405280600381526020017f302e330000000000000000000000000000000000000000000000000000000000815250608990805190602001906200015692919062001419565b50620f4240608a60006101000a81548163ffffffff021916908363ffffffff160217905550670de0b6b3a7640000608e55608e54600102608f553480156200019d57600080fd5b506040516020806200495283398101806040526020811015620001bf57600080fd5b810190808051906020019092919050505080701c35fedd14ffffffffffffffffffffffff60096020608081101515620001f457fe5b0181905550701b0ce43b323fffffffffffffffffffffff600960216080811015156200021c57fe5b01819055507019f0028ec1ffffffffffffffffffffffff600960226080811015156200024457fe5b01819055507018ded91f0e7fffffffffffffffffffffff600960236080811015156200026c57fe5b01819055507017d8ec7f0417ffffffffffffffffffffff600960246080811015156200029457fe5b01819055507016ddc6556cdbffffffffffffffffffffff60096025608081101515620002bc57fe5b01819055507015ecf52776a1ffffffffffffffffffffff60096026608081101515620002e457fe5b01819055507015060c256cb2ffffffffffffffffffffff600960276080811015156200030c57fe5b0181905550701428a2f98d72ffffffffffffffffffffff600960286080811015156200033457fe5b01819055507013545598e5c23fffffffffffffffffffff600960296080811015156200035c57fe5b0181905550701288c4161ce1dfffffffffffffffffffff6009602a6080811015156200038457fe5b01819055507011c592761c666fffffffffffffffffffff6009602b608081101515620003ac57fe5b018190555070110a688680a757ffffffffffffffffffff6009602c608081101515620003d457fe5b0181905550701056f1b5bedf77ffffffffffffffffffff6009602d608081101515620003fc57fe5b0181905550700faadceceeff8bffffffffffffffffffff6009602e6080811015156200042457fe5b0181905550700f05dc6b27edadffffffffffffffffffff6009602f6080811015156200044c57fe5b0181905550700e67a5a25da4107fffffffffffffffffff600960306080811015156200047457fe5b0181905550700dcff115b14eedffffffffffffffffffff600960316080811015156200049c57fe5b0181905550700d3e7a392431239fffffffffffffffffff60096032608081101515620004c457fe5b0181905550700cb2ff529eb71e4fffffffffffffffffff60096033608081101515620004ec57fe5b0181905550700c2d415c3db974afffffffffffffffffff600960346080811015156200051457fe5b0181905550700bad03e7d883f69bffffffffffffffffff600960356080811015156200053c57fe5b0181905550700b320d03b2c343d5ffffffffffffffffff600960366080811015156200056457fe5b0181905550700abc25204e02828dffffffffffffffffff600960376080811015156200058c57fe5b0181905550700a4b16f74ee4bb207fffffffffffffffff60096038608081101515620005b457fe5b01819055507009deaf736ac1f569ffffffffffffffffff60096039608081101515620005dc57fe5b0181905550700976bd9952c7aa957fffffffffffffffff6009603a6080811015156200060457fe5b01819055507009131271922eaa606fffffffffffffffff6009603b6080811015156200062c57fe5b01819055507008b380f3558668c46fffffffffffffffff6009603c6080811015156200065457fe5b0181905550700857ddf0117efa215bffffffffffffffff6009603d6080811015156200067c57fe5b01819055507007ffffffffffffffffffffffffffffffff6009603e608081101515620006a457fe5b01819055507007abbf6f6abb9d087fffffffffffffffff6009603f608081101515620006cc57fe5b018190555070075af62cbac95f7dfa7fffffffffffffff60096040608081101515620006f457fe5b018190555070070d7fb7452e187ac13fffffffffffffff600960416080811015156200071c57fe5b01819055507006c3390ecc8af379295fffffffffffffff600960426080811015156200074457fe5b018190555070067c00a3b07ffc01fd6fffffffffffffff600960436080811015156200076c57fe5b0181905550700637b647c39cbb9d3d27ffffffffffffff600960446080811015156200079457fe5b01819055507005f63b1fc104dbd39587ffffffffffffff60096045608081101515620007bc57fe5b01819055507005b771955b36e12f7235ffffffffffffff60096046608081101515620007e457fe5b018190555070057b3d49dda84556d6f6ffffffffffffff600960476080811015156200080c57fe5b018190555070054183095b2c8ececf30ffffffffffffff600960486080811015156200083457fe5b018190555070050a28be635ca2b888f77fffffffffffff600960496080811015156200085c57fe5b01819055507004d5156639708c9db33c3fffffffffffff6009604a6080811015156200088457fe5b01819055507004a23105873875bd52dfdfffffffffffff6009604b608081101515620008ac57fe5b0181905550700471649d87199aa990756fffffffffffff6009604c608081101515620008d457fe5b01819055507004429a21a029d4c1457cfbffffffffffff6009604d608081101515620008fc57fe5b0181905550700415bc6d6fb7dd71af2cb3ffffffffffff6009604e6080811015156200092457fe5b01819055507003eab73b3bbfe282243ce1ffffffffffff6009604f6080811015156200094c57fe5b01819055507003c1771ac9fb6b4c18e229ffffffffffff600960506080811015156200097457fe5b0181905550700399e96897690418f785257fffffffffff600960516080811015156200099c57fe5b0181905550700373fc456c53bb779bf0ea9fffffffffff60096052608081101515620009c457fe5b018190555070034f9e8e490c48e67e6ab8bfffffffffff60096053608081101515620009ec57fe5b018190555070032cbfd4a7adc790560b3337ffffffffff6009605460808110151562000a1457fe5b018190555070030b50570f6e5d2acca94613ffffffffff6009605560808110151562000a3c57fe5b01819055507002eb40f9f620fda6b56c2861ffffffffff6009605660808110151562000a6457fe5b01819055507002cc8340ecb0d0f520a6af58ffffffffff6009605760808110151562000a8c57fe5b01819055507002af09481380a0a35cf1ba02ffffffffff6009605860808110151562000ab457fe5b0181905550700292c5bdd3b92ec810287b1b3fffffffff6009605960808110151562000adc57fe5b0181905550700277abdcdab07d5a77ac6d6b9fffffffff6009605a60808110151562000b0457fe5b018190555070025daf6654b1eaa55fd64df5efffffffff6009605b60808110151562000b2c57fe5b0181905550700244c49c648baa98192dce88b7ffffffff6009605c60808110151562000b5457fe5b018190555070022ce03cd5619a311b2471268bffffffff6009605d60808110151562000b7c57fe5b0181905550700215f77c045fbe885654a44a0fffffffff6009605e60808110151562000ba457fe5b01819055507001ffffffffffffffffffffffffffffffff6009605f60808110151562000bcc57fe5b01819055507001eaefdbdaaee7421fc4d3ede5ffffffff6009606060808110151562000bf457fe5b01819055507001d6bd8b2eb257df7e8ca57b09bfffffff6009606160808110151562000c1c57fe5b01819055507001c35fedd14b861eb0443f7f133fffffff6009606260808110151562000c4457fe5b01819055507001b0ce43b322bcde4a56e8ada5afffffff6009606360808110151562000c6c57fe5b018190555070019f0028ec1fff007f5a195a39dfffffff6009606460808110151562000c9457fe5b018190555070018ded91f0e72ee74f49b15ba527ffffff6009606560808110151562000cbc57fe5b018190555070017d8ec7f04136f4e5615fd41a63ffffff6009606660808110151562000ce457fe5b018190555070016ddc6556cdb84bdc8d12d22e6fffffff6009606760808110151562000d0c57fe5b018190555070015ecf52776a1155b5bd8395814f7fffff6009606860808110151562000d3457fe5b018190555070015060c256cb23b3b3cc3754cf40ffffff6009606960808110151562000d5c57fe5b01819055507001428a2f98d728ae223ddab715be3fffff6009606a60808110151562000d8457fe5b018190555070013545598e5c23276ccf0ede68034fffff6009606b60808110151562000dac57fe5b01819055507001288c4161ce1d6f54b7f61081194fffff6009606c60808110151562000dd457fe5b018190555070011c592761c666aa641d5a01a40f17ffff6009606d60808110151562000dfc57fe5b0181905550700110a688680a7530515f3e6e6cfdcdffff6009606e60808110151562000e2457fe5b01819055507001056f1b5bedf75c6bcb2ce8aed428ffff6009606f60808110151562000e4c57fe5b01819055506ffaadceceeff8a0890f3875f008277fff6009607060808110151562000e7357fe5b01819055506ff05dc6b27edad306388a600f6ba0bfff6009607160808110151562000e9a57fe5b01819055506fe67a5a25da41063de1495d5b18cdbfff6009607260808110151562000ec157fe5b01819055506fdcff115b14eedde6fc3aa5353f2e4fff6009607360808110151562000ee857fe5b01819055506fd3e7a3924312399f9aae2e0f868f8fff6009607460808110151562000f0f57fe5b01819055506fcb2ff529eb71e41582cccd5a1ee26fff6009607560808110151562000f3657fe5b01819055506fc2d415c3db974ab32a51840c0b67edff6009607660808110151562000f5d57fe5b01819055506fbad03e7d883f69ad5b0a186184e06bff6009607760808110151562000f8457fe5b01819055506fb320d03b2c343d4829abd6075f0cc5ff6009607860808110151562000fab57fe5b01819055506fabc25204e02828d73c6e80bcdb1a95bf6009607960808110151562000fd257fe5b01819055506fa4b16f74ee4bb2040a1ec6c15fbbf2df6009607a60808110151562000ff957fe5b01819055506f9deaf736ac1f569deb1b5ae3f36c130f6009607b6080811015156200102057fe5b01819055506f976bd9952c7aa957f5937d790ef650376009607c6080811015156200104757fe5b01819055506f9131271922eaa6064b73a22d0bd4f2bf6009607d6080811015156200106e57fe5b01819055506f8b380f3558668c46c91c49a2f8e967b96009607e6080811015156200109557fe5b01819055506f857ddf0117efa215952912839f6473e66009607f608081101515620010bc57fe5b018190555033608a60046101000a81548173ffffffffffffffffffffffffffffffffffffffff021916908373ffffffffffffffffffffffffffffffffffffffff160217905550608a60049054906101000a900473ffffffffffffffffffffffffffffffffffffffff1673ffffffffffffffffffffffffffffffffffffffff16600073ffffffffffffffffffffffffffffffffffffffff167f8be0079c531659141344cd1fd0a4f28419497f9722a3daafe3b4186f6b6457e060405160405180910390a380609081905550620011a633608e54600102620011ae640100000000026401000000009004565b5050620014c8565b600073ffffffffffffffffffffffffffffffffffffffff168273ffffffffffffffffffffffffffffffffffffffff161415151562001254576040517f08c379a000000000000000000000000000000000000000000000000000000000815260040180806020018281038252601f8152602001807f45524332303a206d696e7420746f20746865207a65726f20616464726573730081525060200191505060405180910390fd5b6200127981608d546200138e6401000000000262001ada179091906401000000009004565b608d81905550620012e181608b60008573ffffffffffffffffffffffffffffffffffffffff1673ffffffffffffffffffffffffffffffffffffffff168152602001908152602001600020546200138e6401000000000262001ada179091906401000000009004565b608b60008473ffffffffffffffffffffffffffffffffffffffff1673ffffffffffffffffffffffffffffffffffffffff168152602001908152602001600020819055508173ffffffffffffffffffffffffffffffffffffffff16600073ffffffffffffffffffffffffffffffffffffffff167fddf252ad1be2c89b69c2b068fc378daa952ba7f163c4a11628f55a4df523b3ef836040518082815260200191505060405180910390a35050565b60008082840190508381101515156200140f576040517f08c379a000000000000000000000000000000000000000000000000000000000815260040180806020018281038252601b8152602001807f536166654d6174683a206164646974696f6e206f766572666c6f77000000000081525060200191505060405180910390fd5b8091505092915050565b828054600181600116156101000203166002900490600052602060002090601f016020900481019282601f106200145c57805160ff19168380011785556200148d565b828001600101855582156200148d579182015b828111156200148c5782518255916020019190600101906200146f565b5b5090506200149c9190620014a0565b5090565b620014c591905b80821115620014c1576000816000905550600101620014a7565b5090565b90565b61347a80620014d86000396000f3fe608060405260043610610128576000357c0100000000000000000000000000000000000000000000000000000000900463ffffffff168063095ea7b3146101335780630c7d5cd8146101a65780631249c58b146101d157806318160ddd146101ef57806323b872dd1461021a57806329a00e7c146102ad578063395093511461032057806342966c681461039357806349f9b0f7146103ce57806354fd4d50146104415780636d6f1e01146104d157806370a0823114610520578063715018a6146105855780638da5cb5b1461059c5780638f32d59b146105f357806396365d44146106225780639a4f318b1461064d578063a457c2d71461069c578063a9059cbb1461070f578063dd62ed3e14610782578063f2fde38b14610807578063f51e181a14610858575b610130610883565b50005b34801561013f57600080fd5b5061018c6004803603604081101561015657600080fd5b81019080803573ffffffffffffffffffffffffffffffffffffffff16906020019092919080359060200190929190505050610910565b604051808215151515815260200191505060405180910390f35b3480156101b257600080fd5b506101bb610927565b6040518082815260200191505060405180910390f35b6101d9610883565b6040518082815260200191505060405180910390f35b3480156101fb57600080fd5b5061020461092d565b6040518082815260200191505060405180910390f35b34801561022657600080fd5b506102936004803603606081101561023d57600080fd5b81019080803573ffffffffffffffffffffffffffffffffffffffff169060200190929190803573ffffffffffffffffffffffffffffffffffffffff16906020019092919080359060200190929190505050610937565b604051808215151515815260200191505060405180910390f35b3480156102b957600080fd5b5061030a600480360360808110156102d057600080fd5b810190808035906020019092919080359060200190929190803563ffffffff169060200190929190803590602001909291905050506109e8565b6040518082815260200191505060405180910390f35b34801561032c57600080fd5b506103796004803603604081101561034357600080fd5b81019080803573ffffffffffffffffffffffffffffffffffffffff16906020019092919080359060200190929190505050610b1b565b604051808215151515815260200191505060405180910390f35b34801561039f57600080fd5b506103cc600480360360208110156103b657600080fd5b8101908080359060200190929190505050610bc0565b005b3480156103da57600080fd5b5061042b600480360360808110156103f157600080fd5b810190808035906020019092919080359060200190929190803563ffffffff16906020019092919080359060200190929190505050610c18565b6040518082815260200191505060405180910390f35b34801561044d57600080fd5b50610456610d7a565b6040518080602001828103825283818151815260200191508051906020019080838360005b8381101561049657808201518184015260208101905061047b565b50505050905090810190601f1680156104c35780820380516001836020036101000a031916815260200191505b509250505060405180910390f35b3480156104dd57600080fd5b5061050a600480360360208110156104f457600080fd5b8101908080359060200190929190505050610e18565b6040518082815260200191505060405180910390f35b34801561052c57600080fd5b5061056f6004803603602081101561054357600080fd5b81019080803573ffffffffffffffffffffffffffffffffffffffff169060200190929190505050610e38565b6040518082815260200191505060405180910390f35b34801561059157600080fd5b5061059a610e81565b005b3480156105a857600080fd5b506105b1610fbe565b604051808273ffffffffffffffffffffffffffffffffffffffff1673ffffffffffffffffffffffffffffffffffffffff16815260200191505060405180910390f35b3480156105ff57600080fd5b50610608610fe8565b604051808215151515815260200191505060405180910390f35b34801561062e57600080fd5b50610637611040565b6040518082815260200191505060405180910390f35b34801561065957600080fd5b506106866004803603602081101561067057600080fd5b8101908080359060200190929190505050611046565b6040518082815260200191505060405180910390f35b3480156106a857600080fd5b506106f5600480360360408110156106bf57600080fd5b81019080803573ffffffffffffffffffffffffffffffffffffffff16906020019092919080359060200190929190505050611066565b604051808215151515815260200191505060405180910390f35b34801561071b57600080fd5b506107686004803603604081101561073257600080fd5b81019080803573ffffffffffffffffffffffffffffffffffffffff1690602001909291908035906020019092919050505061110b565b604051808215151515815260200191505060405180910390f35b34801561078e57600080fd5b506107f1600480360360408110156107a557600080fd5b81019080803573ffffffffffffffffffffffffffffffffffffffff169060200190929190803573ffffffffffffffffffffffffffffffffffffffff169060200190929190505050611122565b6040518082815260200191505060405180910390f35b34801561081357600080fd5b506108566004803603602081101561082a57600080fd5b81019080803573ffffffffffffffffffffffffffffffffffffffff1690602001909291905050506111a9565b005b34801561086457600080fd5b5061086d611231565b6040518082815260200191505060405180910390f35b600080341115156108fc576040517f08c379a000000000000000000000000000000000000000000000000000000000815260040180806020018281038252601e8152602001807f4d7573742073656e6420657468657220746f2062757920746f6b656e732e000081525060200191505060405180910390fd5b600061090734611237565b90508091505090565b600061091d338484611344565b6001905092915050565b60905481565b6000608d54905090565b60006109448484846115c5565b6109dd84336109d885608c60008a73ffffffffffffffffffffffffffffffffffffffff1673ffffffffffffffffffffffffffffffffffffffff16815260200190815260200160002060003373ffffffffffffffffffffffffffffffffffffffff1673ffffffffffffffffffffffffffffffffffffffff168152602001908152602001600020546118ef90919063ffffffff16565b611344565b600190509392505050565b600080851180156109f95750600084115b8015610a0b575060008363ffffffff16115b8015610a355750608a60009054906101000a900463ffffffff1663ffffffff168363ffffffff1611155b1515610a4057600080fd5b6000821415610a525760009050610b13565b608a60009054906101000a900463ffffffff1663ffffffff168363ffffffff161415610aa457610a9d84610a8f848861197a90919063ffffffff16565b611a4790919063ffffffff16565b9050610b13565b6000806000610abc8786611ada90919063ffffffff16565b9050610adc818888608a60009054906101000a900463ffffffff16611b64565b809350819450505060008260ff16610afd858b61197a90919063ffffffff16565b908060020a820491505090508881039450505050505b949350505050565b6000610bb63384610bb185608c60003373ffffffffffffffffffffffffffffffffffffffff1673ffffffffffffffffffffffffffffffffffffffff16815260200190815260200160002060008973ffffffffffffffffffffffffffffffffffffffff1673ffffffffffffffffffffffffffffffffffffffff16815260200190815260200160002054611ada90919063ffffffff16565b611344565b6001905092915050565b6000610bcb82611cbd565b90503373ffffffffffffffffffffffffffffffffffffffff166108fc829081150290604051600060405180830381858888f19350505050158015610c13573d6000803e3d6000fd5b505050565b60008085118015610c295750600084115b8015610c3b575060008363ffffffff16115b8015610c655750608a60009054906101000a900463ffffffff1663ffffffff168363ffffffff1611155b8015610c715750848211155b1515610c7c57600080fd5b6000821415610c8e5760009050610d72565b84821415610c9e57839050610d72565b608a60009054906101000a900463ffffffff1663ffffffff168363ffffffff161415610cf057610ce985610cdb848761197a90919063ffffffff16565b611a4790919063ffffffff16565b9050610d72565b60008060008488039050610d188882608a60009054906101000a900463ffffffff1689611b64565b80935081945050506000610d35848961197a90919063ffffffff16565b905060008360ff16899060020a029050610d6a85610d5c83856118ef90919063ffffffff16565b611a4790919063ffffffff16565b955050505050505b949350505050565b60898054600181600116156101000203166002900480601f016020809104026020016040519081016040528092919081815260200182805460018160011615610100020316600290048015610e105780601f10610de557610100808354040283529160200191610e10565b820191906000526020600020905b815481529060010190602001808311610df357829003601f168201915b505050505081565b6000610e31610e2561092d565b608f5460905485610c18565b9050919050565b6000608b60008373ffffffffffffffffffffffffffffffffffffffff1673ffffffffffffffffffffffffffffffffffffffff168152602001908152602001600020549050919050565b610e89610fe8565b1515610efd576040517f08c379a00000000000000000000000000000000000000000000000000000000081526004018080602001828103825260208152602001807f4f776e61626c653a2063616c6c6572206973206e6f7420746865206f776e657281525060200191505060405180910390fd5b600073ffffffffffffffffffffffffffffffffffffffff16608a60049054906101000a900473ffffffffffffffffffffffffffffffffffffffff1673ffffffffffffffffffffffffffffffffffffffff167f8be0079c531659141344cd1fd0a4f28419497f9722a3daafe3b4186f6b6457e060405160405180910390a36000608a60046101000a81548173ffffffffffffffffffffffffffffffffffffffff021916908373ffffffffffffffffffffffffffffffffffffffff160217905550565b6000608a60049054906101000a900473ffffffffffffffffffffffffffffffffffffffff16905090565b6000608a60049054906101000a900473ffffffffffffffffffffffffffffffffffffffff1673ffffffffffffffffffffffffffffffffffffffff163373ffffffffffffffffffffffffffffffffffffffff1614905090565b608f5481565b600061105f61105361092d565b608f54609054856109e8565b9050919050565b600061110133846110fc85608c60003373ffffffffffffffffffffffffffffffffffffffff1673ffffffffffffffffffffffffffffffffffffffff16815260200190815260200160002060008973ffffffffffffffffffffffffffffffffffffffff1673ffffffffffffffffffffffffffffffffffffffff168152602001908152602001600020546118ef90919063ffffffff16565b611344565b6001905092915050565b60006111183384846115c5565b6001905092915050565b6000608c60008473ffffffffffffffffffffffffffffffffffffffff1673ffffffffffffffffffffffffffffffffffffffff16815260200190815260200160002060008373ffffffffffffffffffffffffffffffffffffffff1673ffffffffffffffffffffffffffffffffffffffff16815260200190815260200160002054905092915050565b6111b1610fe8565b1515611225576040517f08c379a00000000000000000000000000000000000000000000000000000000081526004018080602001828103825260208152602001807f4f776e61626c653a2063616c6c6572206973206e6f7420746865206f776e657281525060200191505060405180910390fd5b61122e81611e70565b50565b608e5481565b6000816000811115156112b2576040517f08c379a00000000000000000000000000000000000000000000000000000000081526004018080602001828103825260188152602001807f416d6f756e74206d757374206265206e6f6e2d7a65726f21000000000000000081525060200191505060405180910390fd5b60006112bd84611046565b90506112c93382611ffb565b6112de84608f54611ada90919063ffffffff16565b608f819055503373ffffffffffffffffffffffffffffffffffffffff167f65ab8b57af027ad387b3f608b0745de61b7dc81d07be6ded03736db32fe46bd98286604051808381526020018281526020019250505060405180910390a28092505050919050565b600073ffffffffffffffffffffffffffffffffffffffff168373ffffffffffffffffffffffffffffffffffffffff161415151561140f576040517f08c379a00000000000000000000000000000000000000000000000000000000081526004018080602001828103825260248152602001807f45524332303a20617070726f76652066726f6d20746865207a65726f2061646481526020017f726573730000000000000000000000000000000000000000000000000000000081525060400191505060405180910390fd5b600073ffffffffffffffffffffffffffffffffffffffff168273ffffffffffffffffffffffffffffffffffffffff16141515156114da576040517f08c379a00000000000000000000000000000000000000000000000000000000081526004018080602001828103825260228152602001807f45524332303a20617070726f766520746f20746865207a65726f20616464726581526020017f737300000000000000000000000000000000000000000000000000000000000081525060400191505060405180910390fd5b80608c60008573ffffffffffffffffffffffffffffffffffffffff1673ffffffffffffffffffffffffffffffffffffffff16815260200190815260200160002060008473ffffffffffffffffffffffffffffffffffffffff1673ffffffffffffffffffffffffffffffffffffffff168152602001908152602001600020819055508173ffffffffffffffffffffffffffffffffffffffff168373ffffffffffffffffffffffffffffffffffffffff167f8c5be1e5ebec7d5bd14f71427d1e84f3dd0314c0f7b2291e5b200ac8c7c3b925836040518082815260200191505060405180910390a3505050565b600073ffffffffffffffffffffffffffffffffffffffff168373ffffffffffffffffffffffffffffffffffffffff1614151515611690576040517f08c379a00000000000000000000000000000000000000000000000000000000081526004018080602001828103825260258152602001807f45524332303a207472616e736665722066726f6d20746865207a65726f20616481526020017f647265737300000000000000000000000000000000000000000000000000000081525060400191505060405180910390fd5b600073ffffffffffffffffffffffffffffffffffffffff168273ffffffffffffffffffffffffffffffffffffffff161415151561175b576040517f08c379a00000000000000000000000000000000000000000000000000000000081526004018080602001828103825260238152602001807f45524332303a207472616e7366657220746f20746865207a65726f206164647281526020017f657373000000000000000000000000000000000000000000000000000000000081525060400191505060405180910390fd5b6117ad81608b60008673ffffffffffffffffffffffffffffffffffffffff1673ffffffffffffffffffffffffffffffffffffffff168152602001908152602001600020546118ef90919063ffffffff16565b608b60008573ffffffffffffffffffffffffffffffffffffffff1673ffffffffffffffffffffffffffffffffffffffff1681526020019081526020016000208190555061184281608b60008573ffffffffffffffffffffffffffffffffffffffff1673ffffffffffffffffffffffffffffffffffffffff16815260200190815260200160002054611ada90919063ffffffff16565b608b60008473ffffffffffffffffffffffffffffffffffffffff1673ffffffffffffffffffffffffffffffffffffffff168152602001908152602001600020819055508173ffffffffffffffffffffffffffffffffffffffff168373ffffffffffffffffffffffffffffffffffffffff167fddf252ad1be2c89b69c2b068fc378daa952ba7f163c4a11628f55a4df523b3ef836040518082815260200191505060405180910390a3505050565b6000828211151515611969576040517f08c379a000000000000000000000000000000000000000000000000000000000815260040180806020018281038252601e8152602001807f536166654d6174683a207375627472616374696f6e206f766572666c6f77000081525060200191505060405180910390fd5b600082840390508091505092915050565b60008083141561198d5760009050611a41565b600082840290508284828115156119a057fe5b04141515611a3c576040517f08c379a00000000000000000000000000000000000000000000000000000000081526004018080602001828103825260218152602001807f536166654d6174683a206d756c7469706c69636174696f6e206f766572666c6f81526020017f770000000000000000000000000000000000000000000000000000000000000081525060400191505060405180910390fd5b809150505b92915050565b60008082111515611ac0576040517f08c379a000000000000000000000000000000000000000000000000000000000815260040180806020018281038252601a8152602001807f536166654d6174683a206469766973696f6e206279207a65726f00000000000081525060200191505060405180910390fd5b60008284811515611acd57fe5b0490508091505092915050565b6000808284019050838110151515611b5a576040517f08c379a000000000000000000000000000000000000000000000000000000000815260040180806020018281038252601b8152602001807f536166654d6174683a206164646974696f6e206f766572666c6f77000000000081525060200191505060405180910390fd5b8091505092915050565b60008060045486101515611b7457fe5b848610151515611bec576040517f08c379a000000000000000000000000000000000000000000000000000000000815260040180806020018281038252601c8152602001807f4261736573203c203120617265206e6f7420737570706f727465642e0000000081525060200191505060405180910390fd5b600080866003548902811515611bfe57fe5b049050600754811015611c1b57611c14816121ba565b9150611c27565b611c248161269c565b91505b60008563ffffffff168763ffffffff168402811515611c4257fe5b049050600854811015611c7457611c588161279c565b600260019054906101000a900460ff1694509450505050611cb4565b6000611c7f82612c44565b9050611caa81600260019054906101000a900460ff160360ff1683908060020a820491505082612d25565b8195509550505050505b94509492505050565b600081600081111515611d38576040517f08c379a00000000000000000000000000000000000000000000000000000000081526004018080602001828103825260188152602001807f416d6f756e74206d757374206265206e6f6e2d7a65726f21000000000000000081525060200191505060405180910390fd5b80611d4233610e38565b10151515611dde576040517f08c379a000000000000000000000000000000000000000000000000000000000815260040180806020018281038252602b8152602001807f53656e64657220646f6573206e6f74206861766520656e6f75676820746f6b6581526020017f6e7320746f206275726e2e00000000000000000000000000000000000000000081525060400191505060405180910390fd5b6000611de984610e18565b9050611e0081608f546118ef90919063ffffffff16565b608f81905550611e1033856131c9565b3373ffffffffffffffffffffffffffffffffffffffff167f14feb1b32dbb3ebf172a72bc6b201cb3ddcd8dd148da8b8ac41207f2d69bdd328583604051808381526020018281526020019250505060405180910390a28092505050919050565b600073ffffffffffffffffffffffffffffffffffffffff168173ffffffffffffffffffffffffffffffffffffffff1614151515611f3b576040517f08c379a00000000000000000000000000000000000000000000000000000000081526004018080602001828103825260268152602001807f4f776e61626c653a206e6577206f776e657220697320746865207a65726f206181526020017f646472657373000000000000000000000000000000000000000000000000000081525060400191505060405180910390fd5b8073ffffffffffffffffffffffffffffffffffffffff16608a60049054906101000a900473ffffffffffffffffffffffffffffffffffffffff1673ffffffffffffffffffffffffffffffffffffffff167f8be0079c531659141344cd1fd0a4f28419497f9722a3daafe3b4186f6b6457e060405160405180910390a380608a60046101000a81548173ffffffffffffffffffffffffffffffffffffffff021916908373ffffffffffffffffffffffffffffffffffffffff16021790555050565b600073ffffffffffffffffffffffffffffffffffffffff168273ffffffffffffffffffffffffffffffffffffffff16141515156120a0576040517f08c379a000000000000000000000000000000000000000000000000000000000815260040180806020018281038252601f8152602001807f45524332303a206d696e7420746f20746865207a65726f20616464726573730081525060200191505060405180910390fd5b6120b581608d54611ada90919063ffffffff16565b608d8190555061210d81608b60008573ffffffffffffffffffffffffffffffffffffffff1673ffffffffffffffffffffffffffffffffffffffff16815260200190815260200160002054611ada90919063ffffffff16565b608b60008473ffffffffffffffffffffffffffffffffffffffff1673ffffffffffffffffffffffffffffffffffffffff168152602001908152602001600020819055508173ffffffffffffffffffffffffffffffffffffffff16600073ffffffffffffffffffffffffffffffffffffffff167fddf252ad1be2c89b69c2b068fc378daa952ba7f163c4a11628f55a4df523b3ef836040518082815260200191505060405180910390a35050565b6000806000905060008060006fd3094c70f034de4b96ff7d5b6f99fcd886101515612217576f40000000000000000000000000000000840193506fd3094c70f034de4b96ff7d5b6f99fcd8600354870281151561221357fe5b0495505b6fa45af1e1f40c333b3de1db4dd55f29a786101515612268576f20000000000000000000000000000000840193506fa45af1e1f40c333b3de1db4dd55f29a7600354870281151561226457fe5b0495505b6f910b022db7ae67ce76b441c27035c6a1861015156122b9576f10000000000000000000000000000000840193506f910b022db7ae67ce76b441c27035c6a160035487028115156122b557fe5b0495505b6f88415abbe9a76bead8d00cf112e4d4a88610151561230a576f08000000000000000000000000000000840193506f88415abbe9a76bead8d00cf112e4d4a8600354870281151561230657fe5b0495505b6f84102b00893f64c705e841d5d4064bd38610151561235b576f04000000000000000000000000000000840193506f84102b00893f64c705e841d5d4064bd3600354870281151561235757fe5b0495505b6f8204055aaef1c8bd5c3259f4822735a2861015156123ac576f02000000000000000000000000000000840193506f8204055aaef1c8bd5c3259f4822735a260035487028115156123a857fe5b0495505b6f810100ab00222d861931c15e39b44e99861015156123fd576f01000000000000000000000000000000840193506f810100ab00222d861931c15e39b44e9960035487028115156123f957fe5b0495505b6f808040155aabbbe9451521693554f7338610151561244d576e800000000000000000000000000000840193506f808040155aabbbe9451521693554f733600354870281151561244957fe5b0495505b6003548603925082915060035483840281151561246657fe5b0490507001000000000000000000000000000000008370010000000000000000000000000000000003830281151561249a57fe5b04840193506003548183028115156124ae57fe5b049150700200000000000000000000000000000000836faaaaaaaaaaaaaaaaaaaaaaaaaaaaaaaa0383028115156124e157fe5b04840193506003548183028115156124f557fe5b049150700300000000000000000000000000000000836f9999999999999999999999999999999903830281151561252857fe5b048401935060035481830281151561253c57fe5b049150700400000000000000000000000000000000836f9249249249249249249249249249249203830281151561256f57fe5b048401935060035481830281151561258357fe5b049150700500000000000000000000000000000000836f8e38e38e38e38e38e38e38e38e38e38e0383028115156125b657fe5b04840193506003548183028115156125ca57fe5b049150700600000000000000000000000000000000836f8ba2e8ba2e8ba2e8ba2e8ba2e8ba2e8b0383028115156125fd57fe5b048401935060035481830281151561261157fe5b049150700700000000000000000000000000000000836f89d89d89d89d89d89d89d89d89d89d8903830281151561264457fe5b048401935060035481830281151561265857fe5b049150700800000000000000000000000000000000836f8888888888888888888888888888888803830281151561268b57fe5b048401935083945050505050919050565b600080600090506000839050700100000000000000000000000000000000811015156126f95760006126da600354838115156126d457fe5b046133ae565b90508060ff1682908060020a820491505091506003548160ff16029250505b600354811115612781576000600260019054906101000a900460ff1690505b60008160ff16111561277f5760035482830281151561273357fe5b0491507001000000000000000000000000000000008210151561277357600182908060020a820491505091506001810360ff166001549060020a02830192505b80600190039050612718565b505b600654600554830281151561279257fe5b0492505050919050565b600080600090506000806f10000000000000000000000000000000858115156127c157fe5b0691508190506003548282028115156127d657fe5b0490506710e1b3be415a00008102830192506003548282028115156127f757fe5b0490506705a0913f6b1e000081028301925060035482820281151561281857fe5b049050670168244fdac7800081028301925060035482820281151561283957fe5b049050664807432bc1800081028301925060035482820281151561285957fe5b049050660c0135dca0400081028301925060035482820281151561287957fe5b0490506601b707b1cdc00081028301925060035482820281151561289957fe5b0490506536e0f639b8008102830192506003548282028115156128b857fe5b049050650618fee9f8008102830192506003548282028115156128d757fe5b049050649c197dcc008102830192506003548282028115156128f557fe5b049050640e30dce40081028301925060035482820281151561291357fe5b04905064012ebd130081028301925060035482820281151561293157fe5b0490506317499f0081028301925060035482820281151561294e57fe5b0490506301a9d48081028301925060035482820281151561296b57fe5b049050621c638081028301925060035482820281151561298757fe5b0490506201c6388102830192506003548282028115156129a357fe5b049050611ab88102830192506003548282028115156129be57fe5b04905061017c8102830192506003548282028115156129d957fe5b04905060148102830192506003548282028115156129f357fe5b0490506001810283019250600354826721c3677c82b4000085811515612a1557fe5b040101925060006f100000000000000000000000000000008616141515612a695770018ebef9eac820ae8682b9793ac6d1e7767001c3d6a24ed82218787d624d3e5eba95f98402811515612a6557fe5b0492505b60006f200000000000000000000000000000008616141515612ab8577001368b2fc6f9609fe7aceb46aa619baed470018ebef9eac820ae8682b9793ac6d1e7788402811515612ab457fe5b0492505b60006f400000000000000000000000000000008616141515612b06576fbc5ab1b16779be3575bd8f0520a9f21f7001368b2fc6f9609fe7aceb46aa619baed58402811515612b0257fe5b0492505b60006f800000000000000000000000000000008616141515612b53576f454aaa8efe072e7f6ddbab84b40a55c96fbc5ab1b16779be3575bd8f0520a9f21e8402811515612b4f57fe5b0492505b60007001000000000000000000000000000000008616141515612ba1576f0960aadc109e7a3bf4578099615711ea6f454aaa8efe072e7f6ddbab84b40a55c58402811515612b9d57fe5b0492505b60007002000000000000000000000000000000008616141515612bee576e2bf84208204f5977f9a8cf01fdce3d6f0960aadc109e7a3bf4578099615711d78402811515612bea57fe5b0492505b60007004000000000000000000000000000000008616141515612c39576d03c6ab775dd0b95b4cbee7e65d116e2bf84208204f5977f9a8cf01fdc3078402811515612c3557fe5b0492505b829350505050919050565b600080600260009054906101000a900460ff1690506000600260019054906101000a900460ff1690505b8060ff166001830160ff161015612cc3576000600282840160ff16811515612c9257fe5b0490508460098260ff16608081101515612ca857fe5b0154101515612cb957809250612cbd565b8091505b50612c6e565b8360098260ff16608081101515612cd657fe5b0154101515612ce9578092505050612d20565b8360098360ff16608081101515612cfc57fe5b0154101515612d0f578192505050612d20565b60001515612d1957fe5b6000925050505b919050565b60008083905060008090508360ff16858302908060020a820491505091506f03442c4e6074a82f1797f72ac00000008202810190508360ff16858302908060020a820491505091506f0116b96f757c380fb287fd0e400000008202810190508360ff16858302908060020a820491505091506e45ae5bdd5f0e03eca1ff43900000008202810190508360ff16858302908060020a820491505091506e0defabf91302cd95b9ffda500000008202810190508360ff16858302908060020a820491505091506e02529ca9832b22439efff9b80000008202810190508360ff16858302908060020a820491505091506d54f1cf12bd04e516b6da880000008202810190508360ff16858302908060020a820491505091506d0a9e39e257a09ca2d6db510000008202810190508360ff16858302908060020a820491505091506d012e066e7b839fa050c3090000008202810190508360ff16858302908060020a820491505091506c1e33d7d926c329a1ad1a8000008202810190508360ff16858302908060020a820491505091506c02bee513bdb4a6b19b5f8000008202810190508360ff16858302908060020a820491505091506b3a9316fa79b88eccf2a000008202810190508360ff16858302908060020a820491505091506b048177ebe1fa8123752000008202810190508360ff16858302908060020a820491505091506a5263fe90242dcbacf000008202810190508360ff16858302908060020a820491505091506a057e22099c030d941000008202810190508360ff16858302908060020a820491505091506957e22099c030d94100008202810190508360ff16858302908060020a8204915050915069052b6b545699763100008202810190508360ff16858302908060020a82049150509150684985f67696bf7480008202810190508360ff16858302908060020a820491505091506803dea12ea99e4980008202810190508360ff16858302908060020a820491505091506731880f2214b6e0008202810190508360ff16858302908060020a8204915050915067025bcff56eb360008202810190508360ff16858302908060020a82049150509150661b722e10ab10008202810190508360ff16858302908060020a820491505091506601317c700770008202810190508360ff16858302908060020a82049150509150650cba84aafa008202810190508360ff16858302908060020a820491505091506482573a0a008202810190508360ff16858302908060020a820491505091506405035ad9008202810190508360ff16858302908060020a82049150509150632f881b008202810190508360ff16858302908060020a820491505091506301b293408202810190508360ff16858302908060020a82049150509150620efc408202810190508360ff16858302908060020a82049150509150617fe08202810190508360ff16858302908060020a820491505091506104208202810190508360ff16858302908060020a8204915050915060218202810190508360ff16858302908060020a8204915050915060018202810190508360ff166001549060020a02856f0688589cc0e9505e2f2fee5580000000838115156131bc57fe5b0401019250505092915050565b600073ffffffffffffffffffffffffffffffffffffffff168273ffffffffffffffffffffffffffffffffffffffff1614151515613294576040517f08c379a00000000000000000000000000000000000000000000000000000000081526004018080602001828103825260218152602001807f45524332303a206275726e2066726f6d20746865207a65726f2061646472657381526020017f730000000000000000000000000000000000000000000000000000000000000081525060400191505060405180910390fd5b6132a981608d546118ef90919063ffffffff16565b608d8190555061330181608b60008573ffffffffffffffffffffffffffffffffffffffff1673ffffffffffffffffffffffffffffffffffffffff168152602001908152602001600020546118ef90919063ffffffff16565b608b60008473ffffffffffffffffffffffffffffffffffffffff1673ffffffffffffffffffffffffffffffffffffffff16815260200190815260200160002081905550600073ffffffffffffffffffffffffffffffffffffffff168273ffffffffffffffffffffffffffffffffffffffff167fddf252ad1be2c89b69c2b068fc378daa952ba7f163c4a11628f55a4df523b3ef836040518082815260200191505060405180910390a35050565b6000806000905060008390506101008110156133ed575b60018111156133e857600181908060020a820491505090506001820191506133c5565b613444565b6000608090505b60008160ff161115613442578060ff166001549060020a028210151561342b578060ff1682908060020a8204915050915080831792505b60018160ff16908060020a820491505090506133f4565b505b819250505091905056fea165627a7a723058200b345bb5dc544bf797003d50a0b1724c39417247e22741280220c59f5421e3380029a165627a7a7230582002432838a35e86e2a591c51f182ac8ab068760970b677abbad34352f6a0798030029",
  "source": "pragma solidity ^0.5.0;\n\nimport \"./SimpleCBT.sol\";\nimport \"openzeppelin-solidity/contracts/math/SafeMath.sol\";\nimport \"openzeppelin-solidity/contracts/ownership/Ownable.sol\";\n\ncontract Micronews is Ownable {\n    using SafeMath for uint256;\n\n    struct Channel {\n        uint256 id;\n        uint256 subscribers;\n        bytes name;\n    }\n\n    uint256 CHANNEL_SUBSCRIPTION_FEE = 0.1 ether;\n\n    uint256 constant WEEK_IN_SECONDS = 86400 * 7;\n    uint256 constant MAX_BOOKMARKS_PER_PERIOD = 5;\n\n    mapping(uint256 => SimpleCBT) channelIdToContract;\n    mapping(uint256 => Channel) channels;\n\n    mapping(uint256 => uint256) channelIdToTotalEquity;\n    /* channelId => total tokens */\n\n    mapping(uint256 => mapping(address => uint256)) channelIdToUserEquity;\n    /* channelId => user => tokens owned */\n\n    mapping(uint256 => mapping(uint256 => mapping(address => bool))) channelIdToUserSubscriptionStatus;\n    /* feePeriodId => channelId => user => subscriptionStatusBool */\n\n    mapping(uint256 => mapping(address => uint256)) userBookmarksPerPeriod;\n    mapping(uint256 => mapping(address => uint256)) receivedBookmarksPerPeriod;\n    /* feePeriodId => user => number of bookmarks */\n\n    uint256 public channelId = 1;\n    uint256 public RESERVE_RATIO = 500000; // 500k / 1 million = 50%\n\n    uint256 public creatorId = 1;\n    mapping(address => uint256) creatorAddressToId;\n    mapping(uint256 => bytes) creatorIdToName;\n\n    uint256 public postId = 1;\n    mapping(uint256 => Post) public posts;\n    mapping(address => mapping(uint256 => uint256[])) creatorToPostsByFeePeriod;\n\n    mapping(address => uint256) creatorToLastPosted;\n    uint256 public TIME_BETWEEN_POSTS = 12 hours;\n\n    uint256 genesisTimestamp;\n\n    constructor() public {\n        genesisTimestamp = block.timestamp;\n    }\n\n    struct Post {\n        uint256 id;\n        uint256 channelId;\n        uint256 feePeriodId;\n        uint256 timestamp;\n        uint256 upvotes;\n        uint256 downvotes;\n        string content;\n        address creator;\n    }\n\n    /* Fee period id is universal but contract calculates distribution by channel */\n    struct FeePeriod {\n        uint256 id;\n        uint256 channelId;\n        uint256 valueForEquityDistribution;\n        uint256 valueForCreatorDistribution;\n    }\n\n    uint256 currentFeePeriod = 1;\n\n    mapping(uint256 => mapping(uint256 => FeePeriod)) feePeriods;\n    /* feePeriodId => channelId => FeePeriod */\n\n    mapping(uint256 => mapping(uint256 => mapping(address => bool))) periodFeesCollected;\n    /* feePeriodId => channelId => owner address => boolean */\n\n    event PostCreated(\n        address indexed creator,\n        uint256 indexed channelId,\n        string content\n    );\n\n    /* ------ BONDING CURVE FUNCTIONS ------ */\n\n    /* \n      @dev call bonded curve mint function and register channel equity ownership\n      @param _channelId to call channel CBT contract\n     */\n    function mintEquity(uint256 _channelId) public payable {\n        uint256 amount = channelIdToContract[_channelId].mint(); // tokens calculated with msg.value\n        channelIdToTotalEquity[_channelId] = channelIdToTotalEquity[_channelId]\n            .add(amount);\n        channelIdToUserEquity[_channelId][msg\n            .sender] = channelIdToUserEquity[_channelId][msg.sender].add(\n            amount\n        );\n    }\n\n    /* \n      @dev call bonded curve burn function and register decrease in channel equity ownership\n      @param _channelId to call channel CBT contract\n      @param _burnAmount equity to sell\n     */\n    function burnEquity(uint256 _channelId, uint256 _burnAmount) public {\n        channelIdToContract[_channelId].burn(_burnAmount);\n\n        channelIdToTotalEquity[_channelId] = channelIdToTotalEquity[_channelId]\n            .sub(_burnAmount);\n\n        channelIdToUserEquity[_channelId][msg\n            .sender] = channelIdToUserEquity[_channelId][msg.sender].sub(\n            _burnAmount\n        );\n    }\n\n    /* ------ SUBSCRIPTION FUNCTIONS ------ */\n\n    /* \n        @dev user subscribes for each fee period\n        @param _channelId\n     */\n    function subscribeToChannel(uint256 _channelId) public payable {\n        require(\n            msg.value == CHANNEL_SUBSCRIPTION_FEE,\n            \"Must pay exact fee to subscribe\"\n        );\n        channelIdToUserSubscriptionStatus[currentFeePeriod][_channelId][msg\n            .sender] = true;\n    }\n\n    /* \n        @dev user unsubscribes and loses access at end of fee period\n        @param _channelId\n     */\n    function unsubscribeToChannel(uint256 _channelId) public {\n        channelIdToUserSubscriptionStatus[currentFeePeriod][_channelId][msg\n            .sender] = false;\n    }\n\n    function isUserSubscribedToChannel(uint256 _channelId)\n        public\n        returns (bool)\n    {\n        return\n            channelIdToUserSubscriptionStatus[currentFeePeriod][_channelId][msg\n                .sender];\n    }\n\n    /* ------ CONTENT FUNCTIONS ------ */\n\n    /* \n        @dev deploys new CBT contract, one per content channel\n        @param _channelName\n     */\n    function createChannel(bytes memory _channelName) onlyOwner public {\n        channelIdToContract[channelId] = new SimpleCBT(RESERVE_RATIO);\n\n        Channel memory newChannel = Channel({\n            id: channelId,\n            subscribers: 0,\n            name: _channelName\n        });\n\n        channels[channelId++] = newChannel;\n    }\n\n    /* \n        @dev content creators must register to begin building reputation\n        @param _creatorName\n     */\n    function registerContentCreator(bytes memory _creatorName) public {\n        require(creatorAddressToId[msg.sender] == 0, \"Creator already exists\");\n        creatorAddressToId[msg.sender] = creatorId;\n        creatorIdToName[creatorId] = _creatorName;\n    }\n\n    /* \n        @dev creators posting content\n        @param _content\n        @param _channelId\n     */\n    function createPost(string memory _content, uint256 _channelId) public {\n        require(creatorAddressToId[msg.sender] > 0, \"Creator not registered\");\n        require(\n            creatorToLastPosted[msg.sender] + TIME_BETWEEN_POSTS <\n                block.timestamp,\n            \"Creator must wait 12 hours between posts\"\n        );\n        require(\n            channelIdToUserSubscriptionStatus[currentFeePeriod][_channelId][msg.sender] == true,\n            \"Creator not subscribed to channel\"\n        );\n\n        Post memory newPost = Post({\n            id: postId,\n            channelId: _channelId,\n            feePeriodId: currentFeePeriod,\n            timestamp: block.timestamp,\n            upvotes: 0,\n            downvotes: 0,\n            content: _content,\n            creator: msg.sender\n        });\n\n        emit PostCreated(msg.sender, _channelId, _content);\n\n        posts[postId] = newPost;\n        creatorToPostsByFeePeriod[msg.sender][currentFeePeriod].push(postId++);\n\n    }\n\n    /* ------ VOTING FUNCTIONS ------ */\n\n    modifier isEquityOwner(uint256 _channelId) {\n        require(\n            channelIdToUserEquity[_channelId][msg.sender] > 0,\n            \"Voter isn't an equity owner\"\n        );\n        _;\n    }\n\n    /* \n        @dev only equity owners in channel are capable of voting\n        @param _channelId\n        @param _postId\n        @param upvote boolean\n     */\n    function voteOnPost(uint256 _channelId, uint256 _postId, bool upvote)\n        isEquityOwner(_channelId)\n        public\n    {\n        if (upvote) {\n            posts[_postId].upvotes++;\n        } else {\n            posts[_postId].downvotes++;\n        }\n    }\n\n    /* \n        @dev content consumers are endowed with five bookmarks per fee period\n            bookmarks dictate half of the content creators payout\n        @param _channelId\n        @param _postId\n        @param upvote boolean\n     */\n    function bookmarkPost(uint256 _postId, uint256 _channelId) public {\n        require(\n            posts[_postId].feePeriodId == currentFeePeriod,\n            \"Bookmarks are only valid for posts in current fee period\"\n        );\n        require(\n            userBookmarksPerPeriod[currentFeePeriod][msg.sender] <\n                MAX_BOOKMARKS_PER_PERIOD,\n            \"User has no bookmarks remaining\"\n        );\n        require(\n            channelIdToUserSubscriptionStatus[currentFeePeriod][_channelId][msg\n                .sender] ==\n                true,\n            \"Bookmarker must be subscribed to channel\"\n        );\n\n        userBookmarksPerPeriod[currentFeePeriod][msg.sender]++;\n\n        address postCreator = posts[_postId].creator;\n        receivedBookmarksPerPeriod[currentFeePeriod][postCreator]++;\n    }\n\n    /* ------ FEE PERIOD FUNCTIONS ------ */\n\n    function closeFeePeriod() public onlyOwner {\n        require(\n            genesisTimestamp + currentFeePeriod.mul(WEEK_IN_SECONDS) >\n                block.timestamp,\n            \"Fee period not yet complete\"\n        );\n\n        for (uint256 i = 0; i < getNumberOfChannels(); i++) {\n            uint256 fee = (channels[i].subscribers).mul(CHANNEL_SUBSCRIPTION_FEE).div(\n                2\n            );\n\n            feePeriods[currentFeePeriod][i].valueForEquityDistribution = fee;\n            feePeriods[currentFeePeriod][i].valueForCreatorDistribution = fee;\n        }\n\n        currentFeePeriod++;\n    }\n\n    function collectEquityFees(uint256 _channelId) public isEquityOwner(_channelId) {\n        uint256 equityOwnership = channelIdToUserEquity[_channelId][msg.sender];\n        uint256 totalEquity = channelIdToTotalEquity[_channelId];\n\n        uint256 payout = (equityOwnership *\n            (\n                feePeriods[currentFeePeriod - 1][_channelId]\n                    .valueForEquityDistribution\n            )) /\n            totalEquity;\n\n        periodFeesCollected[currentFeePeriod - 1][_channelId][msg.sender] = true;\n\n        msg.sender.transfer(payout);\n    }\n\n    function collectContentFees(uint256 _channelId) public {\n        // define isContentCreator\n    }\n\n    /* ------ GETTER FUNCTIONS ------ */\n\n    function getNumberOfChannels() public view returns (uint256 _num) {\n        return channelId - 1;\n    }\n}\n",
  "sourcePath": "/Users/michaeljcohen/Desktop/projects/micronews/contracts/Micronews.sol",
  "compiler": {
    "name": "solc",
    "version": "0.5.0+commit.1d4f565a.Emscripten.clang"
  },
  "schemaVersion": "3.0.2",
  "updatedAt": "2019-09-25T19:03:41.926Z",
  "devdoc": {
    "methods": {
      "isOwner()": {
        "details": "Returns true if the caller is the current owner."
      },
      "owner()": {
        "details": "Returns the address of the current owner."
      },
      "renounceOwnership()": {
        "details": "Leaves the contract without owner. It will not be possible to call `onlyOwner` functions anymore. Can only be called by the current owner.     * > Note: Renouncing ownership will leave the contract without an owner, thereby removing any functionality that is only available to the owner."
      },
      "transferOwnership(address)": {
        "details": "Transfers ownership of the contract to a new account (`newOwner`). Can only be called by the current owner."
      }
    }
  },
  "userdoc": {
    "methods": {}
  }
}